:1000000000308A0043280000FF00030E8301A10096
:100010007F08A0000A08A8008A01A00E0408A20018
:100020007708A3007808A4007908A5007A08A6003C
:100030007B08A700831383128B1E20280B193928F5
:100040008C308400001C26280C183B2822088400D1
:100050002308F7002408F8002508F9002608FA000C
:100060002708FB0028088A00210E8300FF0E7F0E60
:1000700009008A113D288A1140280B118A1126286F
:100080000C108A112628840183131F3083056130E8
:1000900083168F000F0803170908C039890003135E
:1000A0001F129F12003003178800831287018801F6
:0A00B0008901FF300313A90063006B
:04400E00C420FF3F8C
:00000001FF
;PIC16F883
